:100000000C9460030C947D030C947D030C947D038D
:100010000C947D030C947D030C947D030C947D0360
:100020000C947D030C947D030C947D030C947D0350
:100030000C947D030C947D030C947D030C947D0340
:100040000C947D030C947D030C947D030C947D0330
:100050000C947D030C947D030C947D030C947D0320
:100060000C947D030C947D030C947D030C947D0310
:1000700000000000005C00000C000C007C287C28C4
:1000800058DC68002410480028542840000C000068
:10009000007884008478000054385400107C1000EC
:1000A00080400000101010000040000060100C00A4
:1000B00038543800487C40004864580044542C00B0
:1000C0001C107C005C5424003854240064140C0080
:1000D00068542C0048543800004800008048000054
:1000E0001028440028282800442810000454080040
:1000F00038445C00781478007C5428003844280088
:100100007C4438007C5444007C140400384474005F
:100110007C107C00447C440020403C007C106C003F
:100120007C4040007C187C0078103C00384438004B
:100130007C1408003844B8007C146800485424003B
:10014000047C04007C407C003C603C007C307C00F3
:100150006C106C000C700C0064544C00007C44006B
:100160000C106000447C00000804080080808000BF
:1001700000040800304878007C48300030484800CF
:1001800030487C00306850001078140090A8780047
:100190007C08700050744000808074007C106800FF
:1001A000447C4000781078007808700030483000B7
:1001B000F82810003048F80078100800505828003F
:1001C000083C4800384078003840380078207800F3
:1001D0004830480098A0780048685800107884009B
:1001E000007C00008478100008040804000000006F
:1001F0000000005F00000007000700147F147F1458
:10020000242A7F2A1223130864623649552250009B
:1002100005030000001C2241000041221C00082AA6
:100220001C2A0808083E080800503000000808088A
:100230000808006060000020100804023E51494593
:100240003E00427F400042615149462141454B31C9
:100250001814127F1027454545393C4A4949300159
:10026000710905033649494936064949291E0036B0
:100270003600000056360000000814224114141401
:10028000141441221408000201510906324979412F
:100290003E7E1111117E7F494949363E414141223E
:1002A0007F4141221C7F494949417F090901013EA3
:1002B000414151327F0808087F00417F41002040C2
:1002C000413F017F081422417F404040407F0204AB
:1002D000027F7F0408107F3E4141413E7F090909AA
:1002E000063E4151215E7F09192946464949493157
:1002F00001017F01013F4040403F1F2040201F7F00
:100300002018207F631408146303047804036151E8
:1003100049454300007F4141020408102041417FCC
:100320000000040201020440404040400001020479
:100330000020545454787F4844443838444444207E
:10034000384444487F3854545418087E0901020840
:100350001454543C7F0804047800447D400020403D
:10036000443D00007F10284400417F40007C041879
:1003700004787C0804047838444444387C14141409
:1003800008081414187C7C080404084854545420A9
:10039000043F4440203C4040207C1C2040201C3C2A
:1003A0004030403C44281028440C5050503C446499
:1003B000544C44000836410000007F0000004136E4
:1003C000080002010302010000000000000000001C
:1003D000065F5F0600000000070700070700001423
:1003E0007F7F147F7F1400242E6B6B3A120000462F
:1003F0006630180C666200307A4F5D377A48000428
:1004000007030000000000001C3E634100000000E4
:1004100041633E1C000000082A3E1C1C3E2A0808BE
:10042000083E3E0808000000A0E060000000000850
:100430000808080808000000006060000000006074
:1004400030180C060301003E7F594D7F3E000042EC
:10045000427F7F40400000627359496F660000226E
:100460006349497F360000181C16137F7F10002750
:100470006745457D3900003C7E4B497930000003DB
:100480006371190F070000367F49497F3600000667
:100490004F49693F1E000000006C6C000000000026
:1004A000A0EC6C00000000081C3663410000001442
:1004B00014141414140000004163361C08000002D8
:1004C0000351590F0600003E7F415D5D1F1E007CF9
:1004D0007E13137E7C0000417F7F49497F36001CDC
:1004E0003E634141632200417F7F41637F1C0041A5
:1004F0007F7F495D416300417F7F491D0103001CEF
:100500003E6341517372007F7F08087F7F000000C7
:10051000417F7F41000000307040417F3F0100413A
:100520007F7F081C776300417F7F41406070007FC0
:100530007F060C067F7F007F7F060C187F7F001CE4
:100540003E6341633E1C00417F7F49090F06001E48
:100550003F21717F5E0000417F7F19396F46002681
:10056000674D597B32000003417F7F410300007FCC
:100570007F40407F7F00001F3F60603F1F00007F83
:100580007F3018307F7F0063771C081C776300077B
:100590004F78784F0700006773594D47637100002B
:1005A0007F7F4141000000010306317D00000041D2
:1005B0007F7F10386C440000417F7F400000007C4A
:1005C0007C0C180C7C78007C7C04047C780000385F
:1005D0007C44447C38000084FCF8A4243C180018B7
:1005E0003C24A4F8FC8400447C78441C1800004897
:1005F0005C54547424000000043E7F442400003CFA
:100600007C40403C7C40001C3C60603C1C00003C4A
:100610007C6030607C3C00446C3810386C44009C3A
:10062000BCA0A0FC7C00004C64745C4C640000081E
:10063000083E77414100000000007777000000414C
:1006400041773E0808000002030103020301000095
:10065000000000000000000000000000000000009A
:10066000000000000000000000000000000000008A
:10067000000000000000000000000000000000007A
:10068000000000000000000000000000000000006A
:10069000000000000000000000000000000000005A
:1006A000000000000000000000000000000000004A
:1006B000000000000000000000000000000000003A
:1006C00011241FBECFEFD4E0DEBFCDBF12E0A0E00B
:1006D000B1E0E4E8F4E202C005900D92AC3CB10751
:1006E000D9F722E0ACECB2E001C01D92A63DB20702
:1006F000E1F70E947F030C9440120C9400008FE1FC
:1007000090E00E94CA030E94D90365ED73E081ED79
:1007100093E00E94400D0E9461040E94F4080E9430
:10072000890980E00E94830960E074E182E00E9410
:100730007404C82F60E074E183E00E947404D82F31
:100740008AE091E09F938F930E948B0D4D2F6C2F29
:1007500080E094E10E9496041F928F9384EA92E0D5
:100760009F938F930E948B0D0F900F900F900F907F
:100770000F900F904D2F6C2F80E094E10E94D10AD2
:100780002FE38DE093E0215080409040E1F700C0DE
:100790000000F0CF90BD89B988E18AB98EE880BDAC
:1007A00008955D9BFECF8CB908955F9BFECF8CB101
:1007B000089580E885BF80E280BF0895CF92DF92E0
:1007C000EF92FF920F931F93CF93DF938EE091E010
:1007D0000E94A10D0E94300D7C010E94350DC12C9C
:1007E000D12C00E010E0C4E2D1E00E94300DF6010F
:1007F000F85E808320812817A9F099279F938F9313
:100800001F922F93DF92CF92DF93CF930E948B0D95
:100810000F5F1F4F8DB79EB708960FB6F8949EBF17
:100820000FBE8DBF9FEFC91AD90AC11488E0D80640
:10083000E1F6C7010E94350DC0E0D0E0E12CF12CBB
:100840000F2EFEE5CF2EF1E0DF2EF02D0E94300DB1
:10085000FE01F85E20812817B1F099279F938F93AE
:100860001F922F93DF93CF93DF92CF920E948B0D35
:100870009FEFE91AF90A8DB79EB708960FB6F8945C
:100880009EBF0FBE8DBF2196C11598E0D907F1F626
:10089000FF92EF921F930F938CE991E09F938F93B8
:1008A0000E948B0D0F900F900F900F900F900F9054
:1008B000DF91CF911F910F91FF90EF90DF90CF903C
:1008C00008958C9AEBE8F0E0808183608083AAE849
:1008D000B0E08C9189618C938081806480831092D8
:1008E0008700109286000895FB0194E0908391E2C6
:1008F0009A95F1F700004081908120813081E7EAEC
:10090000F1E63197F1F700C00000813031F060F07E
:10091000823029F0833029F006C0842F0895832F78
:100920000895822F08950895892F0895CF93C62F93
:10093000BC0182E00E947404C817A8F047E64C0F7F
:1009400050E0282F30E0241B350B62E3629FC0018A
:10095000639F900D11246C2F70E0641B750B0E9437
:10096000200B862F0FC02C2F30E090E0821B930BC2
:100970006FEF70E0621B730B0E94200B82E3869F77
:10098000800D1124CF910895CF93C42FBC0183E033
:100990000E947404C817A8F045E64C0F50E0282FB9
:1009A00030E0241B350B62E3629FC001639F900D12
:1009B00011246C2F70E0641B750B0E94200B862F96
:1009C0000FC04C2F50E090E0841B950B6FEF70E050
:1009D000641B750B0E94200B82E3869F800D1124FF
:1009E000CF910895BC0180E00E947404853B80F49F
:1009F000682F70E06851710922E3269FC001279F8C
:100A0000900D11246CE970E00E94200B862F089550
:100A1000682F70E0645B7109072E000C880B990B3E
:100A20000E94580C20E030E040EC5FE30E94B50BE0
:100A300020E030E048E452E40E94490B0E94270C79
:100A4000862F0895BC0181E00E947404853B80F4E8
:100A5000682F70E06851710922E3269FC001279F2B
:100A6000900D11246CE970E00E94200B862F0895F0
:100A7000682F70E0645B7109072E000C880B990BDE
:100A80000E94580C20E030E040EC5FE30E94B50B80
:100A900020E030E048E452E40E94490B0E94270C19
:100AA000862F0895FF920F931F93CF93DF93EC014E
:100AB000162F042F0E949604F82E402F612FCE018E
:100AC0000E94C4042F2D30E022533109B90122F4D1
:100AD00066277727621B730B282F30E022533109DA
:100AE000A90122F444275527421B530B46175707E9
:100AF00044F487E28F1558F480E58F1550F084E0B8
:100B00000DC0883240F0813540F484E007C080E0B9
:100B100005C081E003C082E001C083E0DF91CF9196
:100B20001F910F91FF9008950E9452058230E9F0C5
:100B300028F4882341F0813079F008958330F1F072
:100B4000843029F1089587EF91E09F938F930E945D
:100B50008B0D0F900F9008958EEF91E09F938F93E0
:100B60000E948B0D0F900F90089586E092E09F9366
:100B70008F930E948B0D0F900F9008958DE092E05F
:100B80009F938F930E948B0D0F900F90089582E199
:100B900092E09F938F930E948B0D0F900F9008957A
:100BA000809300100895809300120895E0E0F0E132
:100BB0008EEA808381EA80838AED808382E180836C
:100BC00088EC808388EA80838FE3808385ED80834F
:100BD00080E8808381E8808380E5808389ED80835D
:100BE00081E2808380E2808382E080838BED80835A
:100BF00080E380838DEA8083108284EA808386EAA2
:100C000080838FEA8083089520EBA0E0B0E130E19B
:100C1000E0E0F2E12C931C923C9380E890E010829B
:100C20000197E9F72F5F283BA9F708958055809336
:100C300000100895982F9F70E0E0F0E19083829576
:100C40008F70805F808308958052082E000C990B6E
:100C5000FC01EE0FFF1FEE0FFF1FEE0FFF1FE9530A
:100C6000FC4F880F991F880F991F880F991F9C01AF
:100C700021533C4FA0E0B2E194919C933196E2174E
:100C8000F307D1F70895EF92FF920F931F93CF933D
:100C9000DF938C017C01C0E0D0E006C0F7018191B8
:100CA0007F010E9424062196F80101900020E9F7B7
:100CB0003197E01BF10BCE17DF0780F3DF91CF9167
:100CC0001F910F91FF90EF900895DF92EF92FF92A6
:100CD0000F931F93CF93DF93CDB7DEB7A9970FB6CE
:100CE000F894DEBF0FBECDBFD82E0E94D6058DE290
:100CF0009EE39A8389831B8285E0ECE1F2E0DE01CA
:100D0000149601900D928A95E1F78BE0E1E2F2E012
:100D1000DE01199601900D928A95E1F78BE0ECE2E5
:100D2000F2E0DE01549601900D928A95E1F78BE096
:100D3000E7E3F2E0DE015F9601900D928A95E1F71C
:100D40000E94040600E010E181EBF80180830F2E81
:100D5000F9E0EF2EF02DE0820F2EF1E1FF2EF02DC5
:100D6000F082CE0104960E94430682EBF801808354
:100D7000E082F082CE0109960E94430683EBF801DF
:100D80008083E082F082CE0144960E94430684EB89
:100D9000F8018083E082F082CE014F960E944306E4
:100DA00080EB8D0DF801808385E0808380E1808376
:100DB000CE0101960E9443068D2DA9960FB6F89498
:100DC000DEBF0FBECDBFDF91CF911F910F91FF907E
:100DD000EF90DF90089586B38695869591E08927F8
:100DE000817090E00895DF92EF92FF920F931F932E
:100DF000CF93DF93CDB7DEB763970FB6F894DEBF1E
:100E00000FBECDBF06C087EA91E60197F1F700C09B
:100E100000000E94EB06892BB1F70E94D6058BE0FB
:100E2000E2E4F2E0DE01119601900D928A95E1F77D
:100E300085E0EDE4F2E0DE011C9601900D928A95CA
:100E4000E1F78DE29EE39A8B898B1B8A0E94040650
:100E500000E010E181EBF80180830F2EF9E0DF2E36
:100E6000F02DD0820F2EF1E1EF2EF02DE082CE0199
:100E700001960E9443060F2EF2EBFF2EF02DF80193
:100E8000F082D082E082CE010C960E944306F801E7
:100E9000F08285E0808380E18083CE0141960E94CC
:100EA00043060E94EB06892BE1F306C087EA91E630
:100EB0000197F1F700C000000E94EB06892BB1F703
:100EC00082E00E94650663960FB6F894DEBF0FBEFF
:100ED000CDBFDF91CF911F910F91FF90EF90DF90E9
:100EE0000895DF92EF92FF920F931F93CF93DF93BA
:100EF000CDB7DEB763970FB6F894DEBF0FBECDBF98
:100F000006C087EA91E60197F1F700C000000E9451
:100F1000EB06892BB1F70E94D6058BE0E2E5F2E003
:100F2000DE01119601900D928A95E1F785E0EDE4DE
:100F3000F2E0DE011C9601900D928A95E1F78DE2B8
:100F40009EE39A8B898B1B8A0E94040600E010E1C5
:100F500081EBF80180830F2EF9E0DF2EF02DD08297
:100F60000F2EF1E1EF2EF02DE082CE0101960E94CE
:100F700043060F2EF2EBFF2EF02DF801F082D08207
:100F8000E082CE010C960E944306F801F08285E0D3
:100F9000808380E18083CE0141960E9443060E94B7
:100FA000EB06892BE1F306C087EA91E60197F1F79A
:100FB00000C000000E94EB06892BB1F783E00E947D
:100FC000650663960FB6F894DEBF0FBECDBFDF9106
:100FD000CF911F910F91FF90EF90DF900895DF92D6
:100FE000EF92FF920F931F93CF93DF93CDB7DEB7AE
:100FF00063970FB6F894DEBF0FBECDBF06C087EA79
:1010000091E60197F1F700C000000E94EB06892BE2
:10101000B1F70E94D6058BE0EDE5F2E0DE01119616
:1010200001900D928A95E1F785E0EDE4F2E0DE01B2
:101030001C9601900D928A95E1F78DE29EE39A8BC2
:10104000898B1B8A0E94040600E010E181EBF80105
:1010500080830F2EF9E0DF2EF02DD0820F2EF1E1EC
:10106000EF2EF02DE082CE0101960E9443060F2E56
:10107000F2EBFF2EF02DF801F082D082E082CE015B
:101080000C960E944306F801F08285E0808380E19F
:101090008083CE0141960E9443060E94EB06892B75
:1010A000E1F306C087EA91E60197F1F700C000007E
:1010B0000E94EB06892BB1F784E00E9465066396D7
:1010C0000FB6F894DEBF0FBECDBFDF91CF911F9159
:1010D0000F91FF90EF90DF900895CF93C62F642F6C
:1010E000422F0E945205823019F0833029F007C048
:1010F000C43028F4CF5F03C0C33008F0C1508C2F38
:10110000CF9108957C01062F142FBA98C29A82E0DD
:101110000E946506D2E0212F402F6D2FC7010E944B
:101120006D08C82FD81769F00E9465062FE58AEE72
:1011300090E0215080409040E1F700C00000DC2F9B
:101140001AC00E94EB06892B29F0D23019F40E94B4
:10115000F30611C00E94EB06892B29F0D33019F455
:101160000E94710708C00E94EB06892B21F0D43041
:1011700011F40E94EF078FE493EC0197F1F700C0A0
:101180000000C9CF8FB9779BFECF08958FEF8FB93D
:10119000779BFECF8FB10895C49A089580E187BBF5
:1011A00087B3806A87BB81ED8DB90E94CC08089512
:1011B000C49808950E94D80880EC0E94C2080E943A
:1011C000CC080895CF93C82F0E94D80883E00E94CE
:1011D000C2088C2F0E94C2080E94C608C82F0E9415
:1011E000CC088C2FCF910895CF93DF930E94CE0827
:1011F0000E94DA0883EC99E00197F1F700C0000043
:101200008EE00E94E208982F907E9038D9F01F92CD
:101210008F9388E692E09F938F930E948B0DCAE78D
:10122000D2E0DF93CF930E948B0DDF93CF930E9488
:101230008B0D8DB79EB708960FB6F8949EBF0FBE64
:101240008DBF08C08DE792E09F938F930E948B0D16
:101250000F900F90DF91CF910895CF93DF93D82F08
:10126000C62F0E94D80882E00E94C2088D2F0E94DB
:10127000C2088C2F0E94C2080E94CC08DF91CF9137
:101280000895CF930E94D80880EA0E94C2080E9465
:10129000C608C82F0E94CC088C2FCF9108951F93A9
:1012A000CF93DF93182FD62FC42F0E94D80885E044
:1012B0000E94C208812F0E94C2088D2F0E94C2087E
:1012C0008C2F0E94C2080E94CC08DF91CF911F9101
:1012D0000895CF93DF93EC010E94D808CE0163E01C
:1012E00070E00E94200B009721F0019721F084E824
:1012F00003C081E801C082E80E94C2080E94CC08B5
:10130000DF91CF910895482F60EE8FE00E944F0942
:10131000089560E48AE20E942D096CEB89E20E9444
:101320002D0964E088E20E942D090895CF92DF9292
:10133000EF92FF921F93CF93DF936C01FC016081CA
:10134000718176956795769567957695679581E332
:101350000E942D09F60160816295660F607E82E32E
:101360000E942D09F601628185E30E942D09F60194
:101370008281938118161906ACF47601F4E0EF0E21
:10138000F11C16E3C0E0D0E0F70161917F01812FED
:101390000E942D0921961F5FF60182819381C81753
:1013A000D90794F380E090E00E946909DF91CF9122
:1013B0001F91FF90EF90DF90CF9008957F928F92D2
:1013C0009F92AF92BF92CF92DF92EF92FF920F93D4
:1013D0001F93CF93DF93CDB7DEB72C970FB6F8945A
:1013E000DEBF0FBECDBF5C01FE0131968CE0DF0198
:1013F0001D928A95E9F782E60E94E208C82E81E6EE
:101400000E94E208C694C694C694C694C694D12C91
:10141000B8E08B9FC00CD11C112485E60E94E20825
:10142000882E912C18141904C4F48E010B5F1F4FE1
:10143000FE01E80FF11D9F012B5F3F4F79010F2E39
:10144000F6E67F2EF02D872D0E94E208D8018D93BD
:101450008D017394AE15BF05B1F7DA82C9829C8203
:101460008B828CE0FE013196D50101900D928A9518
:10147000E1F7C5012C960FB6F894DEBF0FBECDBFC5
:10148000DF91CF911F910F91FF90EF90DF90CF9060
:10149000BF90AF909F908F907F900895EF92FF92B2
:1014A0000F931F93CF93DF93CDB7DEB72C970FB673
:1014B000F894DEBF0FBECDBFE9820B831C832D8362
:1014C000FF9289818F9388E992E09F938F930E9486
:1014D0008B0D8C818F938B818F9389EA92E09F9300
:1014E0008F930E948B0D8D81282F082E000C330BBB
:1014F0003F938F938EEB92E09F938F930E948B0D7F
:1015000087EC92E09F938F930E948B0D0FB6F89417
:10151000DEBF0FBECDBF2C960FB6F894DEBF0FBE58
:10152000CDBFDF91CF911F910F91FF90EF90089564
:101530000F931F93CF93DF93CDB7DEB72C970FB6E2
:10154000F894DEBF0FBECDBF8C01FE0131968CE05A
:10155000DF011D928A95E9F71416150654F4F90176
:10156000DE011596240F351F91919D93E217F30725
:10157000D9F77A8369835C834B838CE0FE013196D3
:10158000D80101900D928A95E1F7C8012C960FB60B
:10159000F894DEBF0FBECDBFDF91CF911F910F91A9
:1015A0000895EF92FF920F931F93CF93DF93CDB7E0
:1015B000DEB76C970FB6F894DEBF0FBECDBF8C01BF
:1015C000F62EE42E0E94960489834E2D6F2DC801BD
:1015D0000E94C4048A8389818B838A818C839E01C3
:1015E0002D5F3F4F41E050E061E070E0CE01059695
:1015F0000E94980A9E012C5F3F4F41E050E062E05C
:1016000070E0CE0141960E94980ACE0105960E9494
:10161000960983EC99E00197F1F700C00000CE0134
:1016200041960E9496096C960FB6F894DEBF0FBEE5
:10163000CDBFDF91CF911F910F91FF90EF90089553
:1016400097FB072E16F4009407D077FD09D00E946F
:10165000340B07FC05D03EF4909581959F4F08957B
:10166000709561957F4F0895AA1BBB1B51E107C080
:10167000AA1FBB1FA617B70710F0A61BB70B881F22
:10168000991F5A95A9F780959095BC01CD010895B1
:101690005058BB27AA270E94600B0C94AA0C0E94EA
:1016A0009C0C38F00E94A30C20F039F49F3F19F4F1
:1016B00026F40C94990C0EF4E095E7FB0C94930C33
:1016C000E92F0E94BB0C58F3BA176207730784070F
:1016D000950720F079F4A6F50C94DD0C0EF4E09556
:1016E0000B2EBA2FA02D0B01B90190010C01CA01DC
:1016F000A0011124FF27591B99F0593F50F4503E87
:1017000068F11A16F040A22F232F342F4427585F78
:10171000F3CF469537952795A795F0405395C9F790
:101720007EF41F16BA0B620B730B840BBAF0915048
:10173000A1F0FF0FBB1F661F771F881FC2F70EC0E7
:10174000BA0F621F731F841F48F4879577956795BA
:10175000B795F7959E3F08F0B0CF9395880F08F0A6
:101760009927EE0F9795879508950E94C90B0C94C1
:10177000AA0C0E94A30C58F00E949C0C40F029F483
:101780005F3F29F00C94930C51110C94DE0C0C94D7
:10179000990C0E94BB0C68F39923B1F3552391F384
:1017A000951B550BBB27AA2762177307840738F0D0
:1017B0009F5F5F4F220F331F441FAA1FA9F335D02D
:1017C0000E2E3AF0E0E832D091505040E695001CE1
:1017D000CAF72BD0FE2F29D0660F771F881FBB1F9B
:1017E000261737074807AB07B0E809F0BB0B802D79
:1017F000BF01FF2793585F4F3AF09E3F510578F0A5
:101800000C94930C0C94DE0C5F3FE4F3983ED4F3FD
:10181000869577956795B795F7959F5FC9F7880F78
:10182000911D9695879597F90895E1E0660F771FCA
:10183000881FBB1F621773078407BA0720F0621B5B
:10184000730B840BBA0BEE1F88F7E09508950E9486
:10185000C30C88F09F5798F0B92F9927B751B0F073
:10186000E1F0660F771F881F991F1AF0BA95C9F724
:1018700014C0B13091F00E94DD0CB1E008950C94D9
:10188000DD0C672F782F8827B85F39F0B93FCCF38C
:10189000869577956795B395D9F73EF490958095A1
:1018A000709561957F4F8F4F9F4F0895E89409C0C1
:1018B00097FB3EF490958095709561957F4F8F4F83
:1018C0009F4F9923A9F0F92F96E9BB279395F69599
:1018D000879577956795B795F111F8CFFAF4BB0F17
:1018E00011F460FF1BC06F5F7F4F8F4F9F4F16C07B
:1018F000882311F096E911C0772321F09EE8872F05
:10190000762F05C0662371F096E8862F70E060E0C0
:101910002AF09A95660F771F881FDAF7880F969539
:10192000879597F9089597F99F6780E870E060E0E0
:1019300008959FEF80EC089500240A941616170668
:1019400018060906089500240A94121613061406B0
:1019500005060895092E0394000C11F4882352F013
:10196000BB0F40F4BF2B11F460FF04C06F5F7F4FCB
:101970008F4F9F4F089557FD9058440F551F59F0B2
:101980005F3F71F04795880F97FB991F61F09F3F6C
:1019900079F087950895121613061406551FF2CF95
:1019A0004695F1DF08C0161617061806991FF1CFE5
:1019B00086957105610508940895E894BB2766270C
:1019C0007727CB0197F908958F929F92AF92BF929C
:1019D000CF92DF92EF92FF92CF93DF93EC01688179
:1019E00079818A819B81611571058105910521F4B9
:1019F00064E279ED8BE597E02DE133EF41E050E0D3
:101A00000E94A61149015A019B01AC01A7EAB1E469
:101A10000E94C5116B017C01ACEEB4EFA5019401ED
:101A20000E94D311DC01CB018C0D9D1DAE1DBF1D8D
:101A3000B7FF03C00197A109B04888839983AA839F
:101A4000BB839F77DF91CF91FF90EF90DF90CF9096
:101A5000BF90AF909F908F9008950E94E40C0895DE
:101A600080E091E00E94E40C0895A0E0B0E0809353
:101A7000000190930101A0930201B0930301089526
:101A80000F931F93CF93DF93009731F46115710586
:101A900019F480E090E03AC08B01EC016EE070E058
:101AA00081E090E00E94B20FFC01892B91F380E865
:101AB00083830115110571F01387028781E8838301
:101AC0008091CC029091CD02892B21F4F093CD022C
:101AD000E093CC022097C9F0D187C08783818260D0
:101AE00083838091CE029091CF02892B71F4F09381
:101AF000CF02E093CE028091D0029091D102892B47
:101B000021F4F093D102E093D002CF01DF91CF9185
:101B10001F910F910895A0E0B0E0E1E9FDE00C9481
:101B2000E811AE014B5F5F4FFA0161917191AF0116
:101B30008091CE029091CF020E94D10DE2E00C94F0
:101B400004120F931F93CF93DF93E091CE02F09195
:101B5000CF02238121FF1BC08C01D0E0C0E0F8013F
:101B600081918F016091CE027091CF02DB011896B6
:101B7000ED91FC911997882331F00995892B79F320
:101B8000DFEFCFEFECCF8AE00995892B19F08FEFCB
:101B90009FEF02C08D2F9C2FDF91CF911F910F914E
:101BA0000895ABE0B0E0E7EDFDE00C94D8116C01D6
:101BB0007B018A01FC0117821682838181FFCCC1DF
:101BC000CE0101963C01F6019381F70193FD8591C9
:101BD00093FF81917F01882309F4BAC1853239F4DA
:101BE00093FD859193FF81917F01853229F4B601A0
:101BF00090E00E940C11E7CF912C212C312CFFE1B9
:101C0000F315D8F08B3279F038F4803279F08332E2
:101C1000A1F4232D20611DC08D3261F0803369F461
:101C2000232D216016C0832D8260382EE32DE460C1
:101C30003E2E2AC0F32DF8601DC037FC2DC020EDCC
:101C4000280F2A3040F08E32B9F436FC81C1232DA2
:101C50002064322E19C036FE06C08AE0989E200D00
:101C60001124922E11C0EAE02E9E200D1124222E66
:101C7000F32DF0623F2E08C08C3621F4832D80684E
:101C8000382E02C0883641F4F70193FD859193FF09
:101C900081917F018111B3CF982F9F7D955493300F
:101CA00028F40C5F1F4F9FE399830DC0833631F0FA
:101CB000833771F0833509F059C021C0F801808164
:101CC00089830E5F1F4F88248394912C530113C086
:101CD0002801F2E04F0E511CF801A080B18036FEC1
:101CE00003C0692D70E002C06FEF7FEFC5010E9455
:101CF00001114C018201F32DFF773F2E16C0280100
:101D000022E0420E511CF801A080B18036FE03C0D3
:101D1000692D70E002C06FEF7FEFC5010E94EF10E8
:101D20004C01F32DF0683F2E820133FC1BC0822D45
:101D300090E088169906B0F4B60180E290E00E9427
:101D40000C112A94F4CFF50137FC859137FE81916F
:101D50005F01B60190E00E940C1121102A9421E04D
:101D6000821A91088114910471F7E8C0843611F049
:101D7000893641F5F80137FE07C0608171818281A3
:101D800093810C5F1F4F08C060817181072E000C8A
:101D9000880B990B0E5F1F4FF32DFF763F2E97FF99
:101DA00009C090958095709561957F4F8F4F9F4F9B
:101DB000F0683F2E2AE030E0A3010E944811882EEF
:101DC000861845C0853731F4232D2F7EB22E2AE0A8
:101DD00030E025C0932D997FB92E8F36C1F018F4CD
:101DE000883579F0B5C0803719F0883721F0B0C058
:101DF000E92FE061BE2EB4FE0DC0FB2DF460BF2EB6
:101E000009C034FE0AC0292F2660B22E06C028E081
:101E100030E005C020E130E002C020E132E0F8010E
:101E2000B7FE07C060817181828193810C5F1F4F73
:101E300006C06081718180E090E00E5F1F4FA301BA
:101E40000E944811882E8618FB2DFF773F2E36FE04
:101E50000DC0232D2E7FA22E891458F434FE0BC002
:101E600032FC09C0832D8E7EA82E05C0B82CA32C71
:101E700003C0B82C01C0B92CA4FE0FC0FE01E80DB0
:101E8000F11D8081803321F49A2D997EA92E09C0FD
:101E9000A2FE06C0B394B39404C08A2D867809F0DC
:101EA000B394A3FC11C0A0FE06C0B21488F4280CA1
:101EB000922C9B180EC0B21460F4B60180E290E040
:101EC0000E940C11B394F7CFB21418F42B1802C06F
:101ED000982C212CA4FE10C0B60180E390E00E9453
:101EE0000C11A2FE17C0A1FC03C088E790E002C05D
:101EF00088E590E0B6010CC08A2D867859F0A1FEE5
:101F000002C08BE201C080E2A7FC8DE2B60190E046
:101F10000E940C11891438F4B60180E390E00E940D
:101F20000C119A94F7CF8A94F301E80DF11D80818A
:101F3000B60190E00E940C118110F5CF222009F427
:101F400042CEB60180E290E00E940C112A94F6CFB6
:101F5000F6018681978102C08FEF9FEF2B96E2E119
:101F60000C94F4110F931F93CF93DF93869F8001FE
:101F7000879F100D969F100D1124C8010E94CE0F4F
:101F8000EC01009729F0A80160E070E00E94FA10CF
:101F9000CE01DF91CF911F910F9108950F931F9361
:101FA000CF93DF938230910510F482E090E0E091CE
:101FB000D402F091D50220E030E0A0E0B0E030970C
:101FC00019F1408151810281138148175907C8F0E6
:101FD0008417950769F4109731F012960C931297B5
:101FE00013961C9327C00093D4021093D50222C0ED
:101FF0002115310519F04217530718F49A01BD0154
:10200000EF01DF01F801DBCF21153105F9F0281BC5
:10201000390B2430310580F48A819B81611571056B
:1020200021F0FB019383828304C09093D5028093B7
:10203000D402FE01329644C0FE01E20FF31F8193E9
:10204000919322503109398328833AC02091D202DA
:102050003091D302232B41F42091060130910701E6
:102060003093D3022093D2022091040130910501D4
:102070002115310541F42DB73EB74091080150912B
:102080000901241B350BE091D202F091D302E21733
:10209000F307A0F42E1B3F0B2817390778F0AC018B
:1020A0004E5F5F4F2417350748F04E0F5F1F509368
:1020B000D3024093D2028193919302C0E0E0F0E01A
:1020C000CF01DF91CF911F910F910895CF93DF93AF
:1020D000009709F481C0FC01329713821282A0910B
:1020E000D402B091D502109781F420813181820F02
:1020F000931F2091D2023091D3022817390751F54E
:10210000F093D302E093D20267C0ED0120E030E00B
:10211000CE17DF0740F44A815B819E0141155105CE
:10212000F1F0EA01F5CFD383C28340815181840F5E
:10213000951FC817D90759F488819981840F951F75
:102140000296918380838A819B8193838283211568
:10215000310529F4F093D502E093D4023DC0E901A2
:10216000FB83EA8349915991C40FD51FEC17FD07F2
:1021700061F480819181840F951F0296E901998312
:102180008883828193819B838A83E0E0F0E01296CA
:102190008D919C911397009719F0FD01DC01F7CF09
:1021A0008D919C9111979D012E5F3F4F820F931F40
:1021B0002091D2023091D3022817390769F4309761
:1021C00029F41092D5021092D40202C01382128216
:1021D000B093D302A093D202DF91CF910895FC0176
:1021E0000590615070400110D8F7809590958E0F42
:1021F0009F1F0895DC0101C06D9341505040E0F7EE
:102200000895FC016150704001900110D8F780954D
:1022100090958E0F9F1F08950F931F93CF93DF9379
:10222000FB01238121FD03C08FEF9FEF2CC022FF14
:1022300016C046815781248135814217530744F4E3
:10224000A081B1819D012F5F3F4F318320838C930B
:10225000268137812F5F3F4F3783268314C08B0140
:10226000EC01FB010084F185E02D0995892BE1F655
:10227000D80116968D919C911797019617969C936D
:102280008E931697CE01DF91CF911F910F910895F4
:10229000FA01AA27283051F1203181F1E8946F9397
:1022A0006E7F6E5F7F4F8F4F9F4FAF4FB1E03ED03D
:1022B000B4E03CD0670F781F891F9A1FA11D680FDB
:1022C000791F8A1F911DA11D6A0F711D811D911D0E
:1022D000A11D20D009F468943F912AE0269F112483
:1022E0003019305D3193DEF6CF010895462F4770E7
:1022F000405D4193B3E00FD0C9F7F6CF462F4F7042
:10230000405D4A3318F0495D31FD4052419302D09F
:10231000A9F7EACFB4E0A695979587957795679545
:10232000BA95C9F700976105710508959B01AC0145
:102330000A2E06945795479537952795BA95C9F76C
:10234000620F731F841F951FA01D0895052E97FB14
:102350001EF400940E94BD1157FD07D00E940F1279
:1023600007FC03D04EF40C94BD1150954095309568
:1023700021953F4F4F4F5F4F0895909580957095F1
:1023800061957F4F8F4F9F4F08950E943112A59FF7
:10239000900DB49F900DA49F800D911D1124089560
:1023A000B7FF0C94C5110E94C511821B930B0895B1
:1023B0002F923F924F925F926F927F928F929F9255
:1023C000AF92BF92CF92DF92EF92FF920F931F9343
:1023D000CF93DF93CDB7DEB7CA1BDB0B0FB6F894F4
:1023E000DEBF0FBECDBF09942A88398848885F8434
:1023F0006E847D848C849B84AA84B984C884DF80A5
:10240000EE80FD800C811B81AA81B981CE0FD11D88
:102410000FB6F894DEBF0FBECDBFED010895A1E267
:102420001A2EAA1BBB1BFD010DC0AA1FBB1FEE1F4E
:10243000FF1FA217B307E407F50720F0A21BB30B99
:10244000E40BF50B661F771F881F991F1A9469F715
:1024500060957095809590959B01AC01BD01CF0171
:102460000895A29FB001B39FC001A39F700D811D6D
:102470001124911DB29F700D811D1124911D08958D
:04248000F894FFCFFE
:10248400010000000000D602200068656900537452
:10249400617274696E67205352414D207465737480
:1024A4002E2E2E0057726974652070686173652042
:1024B4006572726F723A206578745F72616D5B2524
:1024C40034645D203D2025303258202873686F75B0
:1024D4006C642062652025303258290A0D0052654B
:1024E4007472696576616C207068617365206572C9
:1024F400726F723A206578745F72616D5B25346423
:102504005D203D2025303258202873686F756C6437
:102514002062652025303258290A0D000D5352419E
:102524004D207465737420636F6D706C657465649D
:102534002077697468200D253464206572726F7287
:102544007320696E207772697465207068617365A1
:1025540020616E64200D0A253464206572726F72E6
:102564007320696E2072657472696576616C20707F
:10257400686173650D0D004C6566740A0D0052693F
:102584006768740A0D00446F776E0A0D0055700A6F
:102594000D004E65757472616C0A0D004D454E5503
:1025A40000504C41592047414D453100504C415950
:1025B4002047414D453200504C41592047414D453B
:1025C4003300504F534954494F4E20320045584927
:1025D4005400504F534954494F4E203300504F53E9
:1025E4004954494F4E20340043414E5354415420E2
:1025F4004552524F523A202578200A0D0049742042
:10260400697320696E2074686520636F6E666967FC
:10261400206D6F64650A0D004D65737361676520F5
:1026240069643A2025640A0D004D6573736167651A
:10263400206C656E6774683A2025640A0D00446155
:0C26440074613A202564000A0A0D0D00A4
:00000001FF
